:020000040800F2
:1000000030250020350400080D0200080F0200080A
:1000100013020008170200081B020008000000007D
:100020000000000000000000000000001F020008A7
:100030002102000800000000230200080128000837
:100040004F0400084F0400084F0400084F04000844
:100050004F0400084F0400084F0400084F04000834
:100060004F0400084F0400084F0400084F04000824
:100070004F0400084F0400084F0400084F04000814
:100080004F040008633700084F0400084F040008BD
:100090004F0400084F0400084F0400084F040008F4
:1000A0004F0400084F0400084F040008F32C000818
:1000B000192900084F040008532F00084F040008B6
:1000C0004F0400084F0400084F0400084F040008C4
:1000D0004F040008C53500081F7300084F040008CE
:1000E0004F0400084F0400084F0400084F040008A4
:1000F0004F0400084F0400084F0400084F04000894
:100100004F0400084F0400084F0400084F04000883
:100110004F040008633800084F0400084F0400082B
:100120004F0400084F0400084F0400084F04000863
:100130004F0400084F0400084F0400084F04000853
:100140004F0400084F0400084F040008354C000815
:100150004F0400084F0400084F0400084F04000833
:100160004F0400084F0400084F0400084F04000823
:100170004F0400084F0400084F0400084F04000813
:100180004F0400084F040008DFF80CD00BF03EFECF
:10019000004800479D010008302500204FF4A06072
:1001A00000F05AF902F0CCFA02F050FB22E006F01F
:1001B0002CFF114890ED000ABDEEC00A10EE100AA7
:1001C0000E4988800E4890ED0C0ABDEEC00A10EE74
:1001D000100AC88006F0DBF80A4806F042F820282A
:1001E00008D1002004E00849095C064A1154401C6B
:1001F0000A28F8DBDBE7000070070020FC00002085
:10020000940700208C030020D4060020704700BF14
:10021000FEE700BFFEE700BFFEE700BFFEE7704756
:10022000704770470CB50020019000907648006838
:1002300040F480307449086000BF7348006800F4DF
:10024000003000900198401C0190009818B9019866
:10025000B0F5A04FF1D16C48006800F4003010B147
:100260000120009001E0002000900098012846D174
:1002700065484030006840F0805063494031086074
:100280006248006840F44040604908605E480830B9
:1002900000685D49083108600846006840F4004085
:1002A00008600846006840F4A05008605848091FDC
:1002B0000860081F006840F08070091F086000BFD8
:1002C0005148006800F000700028F9D040F2057035
:1002D000504908604C480830006820F003004A4943
:1002E000083108600846006840F00200086000BF5E
:1002F00045480830006800F00C000828F8D10CBD13
:1003000010B54548006840F47000434908603E4815
:10031000006840F001003C49086000203A4908317B
:100320000860394800683D490840374908603C4842
:10033000091D0860081F006820F48020091F08605C
:10034000002031490C310860FFF76CFF4FF000606E
:1003500031498039086010BD70B5002000220223A9
:1003600000240221284D08352D6805F00C0020B12D
:10037000042806D0082834D107E02A4D2A4E3560DB
:1003800033E02A4D284E35602FE01F4D2D1D2D687E
:10039000C5F380541C4D2D1D2D6805F03F0154B14F
:1003A000224DB5FBF1F5184E361D3668C6F388169A
:1003B00005FB06F209E01B4DB5FBF1F5124E361DAB
:1003C0003668C6F3881605FB06F20F4D2D1D2D6805
:1003D000C5F301456D1C6B00B2FBF3F5124E3560A1
:1003E00003E0104D104E356000BF00BF064D0835CC
:1003F0002D68C5F303150E4E705D0B4D2D68C5407D
:10040000094E356070BD00000038024000700040A9
:1004100008544007003C024088ED00E0FFFFF6FE74
:10042000103000240024F4000000002000127A00A4
:10043000040000200648804706480047FEE7FEE724
:10044000FEE7FEE7FEE7FEE7FEE7FEE7FEE7FEE784
:10045000010300088901000832490143324A116052
:10046000704770B5002100230F22C4781CB32E4CB6
:10047000246804F4E064C4F5E064C4F30721C1F126
:100480000404E3B20A4144789C40E1B28478144009
:1004900021430C07210E254C05786155047804F0A2
:1004A0001F050124AC4005786D11AD0005F1E02574
:1004B000C5F8004109E0047804F01F050124AC40B0
:1004C0001B4D0678761145F8264070BD194A0A4042
:1004D0000243154B1B1F1A60704739B1124A121D97
:1004E00012680243104B1B1D1A6006E00E4A121DD3
:1004F000126882430C4B1B1D1A607047042808D1F8
:100500004FF0E021096941F004014FF0E022116150
:1005100007E04FF0E021096921F004014FF0E022EB
:10052000116170470000FA050CED00E000E400E006
:1005300080E100E080FFFF1F016821F00101016000
:100540000021016041608160C16001612121416140
:10055000DB49884204D13D21D94A103A91608CE0B0
:10056000D7491831884205D14FF47461D44A103A02
:10057000916082E0D2493031884205D14FF4741144
:10058000CF4A103A916078E0CD494831884205D190
:100590004FF07461CA4A103A91606EE0C849603108
:1005A000884204D1C749C64A103AD16065E0C449BF
:1005B0007831884204D1C449C14A103AD1605CE024
:1005C000BF499031884204D1C049BD4A103AD16038
:1005D00053E0BB49A831884205D14FF03D51B84A9C
:1005E000103AD16049E0BA49884204D13D21B84A65
:1005F000083A116041E0B6491831884205D14FF4FC
:100600007461B34A083A116037E0B1493031884229
:1006100005D14FF47411AE4A083A11602DE0AC498F
:100620004831884205D14FF07461A94A083A1160F7
:1006300023E0A7496031884204D1A249A44A121F8D
:1006400011601AE0A2497831884204D19E49A04A3B
:10065000121F116011E09E499031884204D19B49DC
:100660009B4A121F116008E09949A831884204D1C1
:100670004FF03D51964A121F1160704710B500228D
:100680000268944B1A40CC680B6823434C6923439F
:100690008C692343CC6923430C6A23434C6A23436C
:1006A0008C6A23434C6B23438C6B23431A430260B5
:1006B000426922F00702D1E90B3423431A43426115
:1006C0000B6943604B6883608B68C36010BD002179
:1006D000016041608160C160016141618161C1610E
:1006E000016241628162C16201634163816370475B
:1006F00021B1026842F00102026003E0026822F0C8
:1007000001020260704721B1026842F400420260B7
:1007100003E0026822F400420260704721B10268DF
:1007200042F02002026003E0026822F02002026030
:100730007047416070470146486880B2704722B1F7
:10074000036843F40023036003E0036823F40023F9
:1007500003600161704721B1026842F480220260A7
:1007600003E0026822F48022026070470AB101614E
:1007700000E0C1607047014600200A6802F40022D0
:100780000AB1012000E000207047014600200A68FD
:1007900002F001020AB1012000E00020704701468A
:1007A00000204A6902F03800704730B503460A4617
:1007B00000200024464DAB4202D24149103901E0ED
:1007C0004349103902F000550DB14C6800E00C6847
:1007D000414D2C4004EA02050DB1012000E000204B
:1007E00030BD02463A4B9A4202D23548103801E0F9
:1007F0003748103801F000531BB1374B0B40C36032
:1008000002E0354B0B408360704710B501F0800368
:100810004BB122B1436943F08003436103E0436974
:1008200023F08003436180290BD02AB1036801F0D3
:100830001E042343036004E0036801F01E04A34385
:10084000036010BD70B50246002000240025204E34
:10085000B24202D21A4B103B01E01D4B103B1F4E1F
:100860000E4036B11E2606EAD124166806EA0405B3
:1008700002E0566906F0800501F000560EB15C6892
:1008800000E01C68144E344004EA010616B10DB1B4
:10089000012000E0002070BD02460D4B9A4202D2BA
:1008A0000748103801E00A48103801F000531BB126
:1008B000094B0B40C36002E0074B0B40836070475D
:1008C000106002403D000020400F002000003D204D
:1008D000106402403F801CF07D0F7D0F3C0F3C0FE9
:1008E00010B504469848844208D10121084600F01A
:1008F000B2FD0021012000F0AEFD76E09348844275
:1009000008D10121022000F0A6FD0021022000F004
:10091000A2FD6AE08E48844208D10121042000F043
:100920009AFD0021042000F096FD5EE08948844293
:1009300008D10121082000F08EFD0021082000F0E0
:100940008AFD52E08448844208D10121102000F041
:1009500082FD0021102000F07EFD46E07F488442A9
:1009600008D10121202000F076FD0021202000F098
:1009700072FD3AE07A48844208D10121402000F01B
:100980006AFD0021402000F066FD2EE0754884429B
:1009900008D10121802000F05EFD0021802000F0C0
:1009A0005AFD22E07048844208D10121801500F0F0
:1009B00052FD0021A01500F04EFD16E06B48844268
:1009C00008D10121401500F046FD0021601500F01E
:1009D00042FD0AE06648844207D10121001500F07B
:1009E0003AFD0021201500F036FD10BDF0B50A4695
:1009F00000210023002400BF3DE0012505FA01F39A
:100A0000156805EA03049C4234D105684F000326AB
:100A1000BE40B543056015794E00B54006683543C4
:100A200005601579012D02D01579022D16D1856842
:100A30004F000326BE40B543856055794E00B54052
:100A4000866835438560456801268E40B54345601C
:100A5000456896798E40B6B235434560C5684F000B
:100A60000326BE40B543C560D5794E00B540C66883
:100A70003543C560491C1029BFD3F0BD4FF6FF7147
:100A800001600021017141718171C171704708B528
:100A90004FF480320092009A0A430092009AC26199
:100AA000C161009AC261C2690092C269009208BD28
:100AB0000246002013690B400BB1012000E000202A
:100AC00070470146086980B27047024600205369AA
:100AD0000B400BB1012000E000207047014648693F
:100AE00080B2704701837047418370470AB1018328
:100AF00000E0418370474161704742694A4042616A
:100B00007047F0B5002300244D07ED0E02FA05F3FF
:100B1000CE1000F1200555F826504E07F70E0F268F
:100B2000BE40B543CF1000F1200646F82750CE1046
:100B300000F1200555F8265045EA0304CE1000F1D7
:100B4000200545F82640F0BD0000024000040240A8
:100B500000080240000C0240001002400014024055
:100B600000180240001C0240002002400024024005
:100B70000028024010B50446F848844209D10121FA
:100B8000480500F09BFC00214FF4001000F096FC9B
:100B900018E0F348844209D10121880500F08EFC59
:100BA00000214FF4800000F089FC0BE0ED48844206
:100BB00008D10121C80500F081FC00214FF400009C
:100BC00000F07CFC10BD2DE9FF4704460D460026D1
:100BD000B1460427DFF89083A6884FF6C070064020
:100BE000684600F0FCFADDF80880E048B8FBF0F059
:100BF0001FFA80F946EA0906A68020884FF6FE71A2
:100C0000084020800026DA49286888420CD82868E5
:100C10004000B8FBF0F087B2042F00DA04273E430F
:100C200009F10100208427E0E8884BF6FF71884233
:100C300006D1286800EB4000B8FBF0F087B209E06D
:100C4000286800EBC00101EB0010B8FBF0F087B2A0
:100C500047F48047C7F30B0008B947F0010747F492
:100C6000004006434FF4967009FB00F04FF47A7190
:100C700090FBF1F0401C2084A683208840F0010006
:100C8000208026884FF6F5300640A88869890843F9
:100C900006432680A889298908432081BDE8FF876B
:100CA00041F288310160002181804BF6FF71C180E3
:100CB0000021018141814FF480418181704721B140
:100CC000028842F00102028004E002884FF6FE73BF
:100CD0001A400280704729B1828C4FF6EF731A4098
:100CE000828403E0828C42F01002828470470A46BC
:100CF0000021818C4FF6F073194002F00F03194365
:100D00008184704721B1028842F48072028004E03D
:100D100002884FF6FF631A400280704721B10288B3
:100D200042F40072028004E002884FF6FF531A403A
:100D30000280704712B141F0010101E001F0FE01B3
:100D40000182704721B1028842F48062028004E08F
:100D500002884FF6FF331A40028070470A4600218E
:100D600081894FF60173194002F0FE031943818116
:100D7000704721B1828942F00102828104E08289B8
:100D80004FF6FE731A408281704721B1028842F00B
:100D90004002028004E002884FF6BF731A400280CE
:100DA000704721B1028842F40042028003E00288C9
:100DB000C2F30E020280704721B9028842F080021D
:100DC000028004E002884FF67F731A400280704769
:100DD000B1F5804F05D0828B4BF6FF731A408283AA
:100DE00003E0828B42F4804282837047B1F5006F4A
:100DF00004D1028842F40062028004E002884FF2CB
:100E0000FF731A4002807047B1F5005F04D1028879
:100E100042F40052028004E002884DF6FF731A404B
:100E20000280704721B1028842F01002028004E083
:100E300002884FF6EF731A400280704701827047B4
:100E40000146088AC0B2704721B1028842F480523C
:100E5000028004E002884EF6FF731A400280704759
:100E6000B1F5006F04D1028842F40062028004E010
:100E700002884FF2FF731A400280704721B1028846
:100E800042F02002028004E002884FF6DF731A402D
:100E9000028070470146088B0012704721B182889A
:100EA00042F40062828004E082884FF2FF731A40AD
:100EB0008280704721B1828842F48052828004E0AF
:100EC00082884EF6FF731A408280704708B502464A
:100ED000002000900092009808440090009800883C
:100EE00008BD1AB183880B43838002E083888B435B
:100EF0008380704770B5024600240025002300203F
:100F0000958A138B1B0445EA030626F07F4404EA06
:100F100001068E4201D1012000E0002070BD10B515
:100F200001460020002300228B8A0A8B120443EA28
:100F3000020424F07F4010BD0CB5024600200023BF
:100F40000193009300920B0F019321F07F41019BCD
:100F500083B1009B1433009310E000000054004064
:100F600000580040005C004000127A0040420F0030
:100F7000A0860100090C009B18330093009B1B689E
:100F80000B400BB1012000E000200CBD002221F03D
:100F90007F42D3438382704730B50246002000234E
:100FA000948801F0E06504EA154321F07F41948ABA
:100FB0000C4014B10BB1012000E0002030BD002234
:100FC00021F07F42D343838270470000F9480068D4
:100FD00040F00100F74908600020F6490831086038
:100FE000F4480068F4490840F2490860F348091DD4
:100FF0000860F348EF4984310860F0481038091D53
:101000000860EC48006820F48020EA49086000206D
:10101000E8490C310860E7498C31086070470021CD
:10102000E44A921C117011460870704710B50146D1
:101030000022002300204A11012A02D1DD4C23683E
:1010400008E0022A03D1DB4C7034236802E0D94C5B
:101050007434236801F01F02012494401C400CB139
:10106000012000E0002010BD38B5002000900024D1
:10107000002500BF3120FFF7D9FF05460098401C2E
:1010800000900098B0F5A04F01D0002DF2D0312093
:10109000FFF7CCFF08B1012400E00024204638BD52
:1010A00001460020C34A106820F0F80040EAC10061
:1010B00010607047C349086070470021BD4A703214
:1010C00011701170012802D004280AD104E0012116
:1010D000B84A7032117005E00521B64A70321170BD
:1010E00000E000BF00BF7047B7490860704770B5A7
:1010F000049C41EA82150126C6EB530645EA0645E3
:10110000054345EA0465AB4E361D356070BDAD49FB
:1011100008667047820142EA0172A64B84331A6066
:101120007047A8498866704710B5830143EA016398
:1011300043EA02739F4C8834236010BDA1490867BD
:101140007047A049C864704702460020994B083395
:10115000186820F0EC6042EA01031843954B08330D
:101160001860704702460020924B0833186820F040
:10117000784042EA010318438E4B083318607047E9
:10118000014600208B4A0832106820F00300084313
:101190001060704787480830006800F00C00704706
:1011A00001460020834A0832106820F0F00008430E
:1011B00010607047014600207E4A0832106820F413
:1011C000E05008431060704701460020794A083219
:1011D000106820F4604040EAC10010607047F0B52C
:1011E000002100220024022500260223714F083727
:1011F0003F6807F00C0121B1042905D0082937D137
:1012000005E0724F076036E0714F076033E0694FC9
:101210003F1D3F68C7F38056664F3F1D3F6807F08C
:101220003F036EB16A4FB7FBF3F7DFF888C10CF1EB
:10123000040CDCF800C0CCF3881C07FB0CF40CE0B9
:10124000624FB7FBF3F7DFF86CC10CF1040CDCF86C
:1012500000C0CCF3881C07FB0CF4564F3F1D3F68C1
:10126000C7F301477F1C7D00B4FBF5F7076002E080
:10127000564F076000BF00BF4E4F08373F6807F06A
:10128000F0010909534F7A5C0768D7404760494F1E
:1012900008373F6807F4E051890A4E4F7A5C476887
:1012A000D7408760434F08373F6807F46041490BD8
:1012B000484F7A5C4768D740C760F0BD002100F412
:1012C0004072B2F5407F0AD13A4A0832116821F4DF
:1012D000F811414A02401143364A08321160354A3A
:1012E00070321268C0F30B031A43324B70331A602A
:1012F00070473549443908607047334940390860C0
:10130000704736490860704701460020294A8C32F0
:10131000106820F01F004A1E1043264A8C321060CD
:10132000704701460020234A8C32106820F4F850A0
:101330004A1E40EA02201F4A8C3210607047014664
:1013400000201C4A8C32106820F4401008431060C2
:10135000704701460020174A8C32106820F4400084
:1013600008431060704701460020124A8C32106812
:1013700020F44030084310607047194908607047F6
:1013800039B10C4A3032126802430A4B30331A60CA
:1013900006E0084A303212688243064B30331A6046
:1013A0007047F9B1034A343212680243014B3433B7
:1013B0001A601CE000380240FFFFF6EA10300024FB
:1013C0000030002000004742800E47420024F40015
:1013D00000127A0014000020FFFCFF0F5C0147425E
:1013E000E01147428F4A126882438E4B1A60704761
:1013F00039B18C4A121D126802438A4B1B1D1A60B8
:1014000006E0884A121D12688243864B1B1D1A6033
:10141000704739B1834A0C3212680243814B0C3356
:101420001A6006E07F4A0C32126882437D4B0C330F
:101430001A60704739B17B4A103212680243794B07
:1014400010331A6006E0774A103212688243754BF7
:1014500010331A60704739B1724A243A1268024355
:10146000704B243B1A6006E06E4A243A12688243AD
:101470006C4B243B1A60704739B16A4A203A1268B3
:101480000243684B203B1A6006E0664A203A126825
:101490008243644B203B1A60704739B1614A1C3A61
:1014A000126802435F4B1C3B1A6006E05D4A1C3A1F
:1014B000126882435B4B1C3B1A60704739B1594A32
:1014C000143A12680243574B143B1A6006E0554A1F
:1014D000143A12688243534B143B1A60704739B177
:1014E000504A103A126802434E4B103B1A6006E015
:1014F0004C4A103A126882434A4B103B1A607047BC
:1015000039B1484A1C3212680243464B1C331A60F8
:1015100006E0444A1C3212688243424B1C331A6074
:10152000704739B13F4A2032126802433D4B2033A5
:101530001A6006E03B4A203212688243394B20335E
:101540001A60704739B1374A243212680243354B6A
:1015500024331A6006E0334A243212688243314B46
:1015600024331A60704739B12E4A2C321268024374
:101570002C4B2C331A6006E02A4A2C321268824324
:10158000284B2C331A60704739B1264A3032126822
:101590000243244B30331A6006E0224A303212688C
:1015A0008243204B30331A607047012808D11D490F
:1015B0003C31096841F008011A4A3C32116007E0E9
:1015C00018493C31096821F00801164A3C32116083
:1015D000704739B1134A273A12780243114B273B1F
:1015E0001A7006E00F4A273A127882430D4B273BC8
:1015F0001A7070470B484030006840F0807009490D
:1016000040310860704701460020064A283A1268B7
:101610000A400AB1012000E0002070470149263944
:10162000087070473438024010B50446FE488442C2
:1016300008D101210846FFF752FF00210120FFF7E2
:101640004EFF9DE0B4F1804F08D101210846FFF71D
:1016500035FF00210120FFF731FF91E0F34884427C
:1016600008D101210220FFF729FF00210220FFF706
:1016700025FF85E0EE48844208D101210420FFF7D0
:101680001DFF00210420FFF719FF79E0E94884429B
:1016900008D101210820FFF711FF00210820FFF7E2
:1016A0000DFF6DE0E448844208D101211020FFF7CE
:1016B00005FF00211020FFF701FF61E0DF488442B1
:1016C00008D101212020FFF7F9FE00212020FFF79B
:1016D000F5FE55E0DA48844208D101210220FFF7E7
:1016E000FEFE00210220FFF7FAFE49E0D5488442C1
:1016F00009D101210804FFF7F2FE00214FF48030E8
:10170000FFF7EDFE3CE0D048844209D101214804B6
:10171000FFF7E5FE00214FF40030FFF7E0FE2FE079
:10172000CA48844209D101218804FFF7D8FE00216C
:101730004FF48020FFF7D3FE22E0C548844208D151
:1017400001214020FFF7BAFE00214020FFF7B6FE3E
:1017500016E0C048844208D101218020FFF7AEFE88
:1017600000218020FFF7AAFE0AE0BB48844207D18F
:1017700001218015FFF7A2FE0021A015FFF79EFEB4
:1017800010BD00220288A84B98420ED0AC4B984264
:101790000BD0B0F1804F08D0A44B984205D0A44B99
:1017A000984202D0A34B984204D14FF68F731A404F
:1017B0004B881A43A04B984207D0A04B984204D0C4
:1017C0004FF6FF431A400B891A4302804B68C362ED
:1017D0000B880385944B984202D0994B984201D1D3
:1017E0008B7A03860123838270474FF0FF3141607B
:1017F00000210180018141808172704701858282D0
:1018000070470A46002101884FF68F731940114333
:101810000180704741627047C16270470146486A63
:1018200070470146088D704721B1028842F00202DC
:10183000028004E002884FF6FD731A400280704770
:1018400021B1028842F00402028004E002884FF6CF
:10185000FB731A400280704721B1028842F0800277
:10186000028004E002884FF67F731A4002807047BE
:1018700002884FF6F7731A40028002880A430280FA
:10188000704702884FF6FF431A40028002880A43DD
:101890000280704721B1028842F00102028004E018
:1018A00002884FF6FE731A400280704770B500241C
:1018B00000220023058C4FF6FE7635400584028C0D
:1018C0008388048B4FF68F752C40B51E2C400D88F5
:1018D0002C43751E2A408D892A434D882A43524D38
:1018E000A84202D0564DA84213D14FF6F7752A40B0
:1018F000CD892A434FF6FB752A408D882A434FF63F
:10190000FF652B404FF6FF552B400D8A2B434D8A28
:101910002B43838004838D684563028470BD70B55A
:10192000002400220023058C4FF6EF763540058415
:10193000028C8388048B48F6FF752C404FF6FF45D8
:101940002C400D884FF6FF7606EA05252C434FF60E
:10195000DF752A408D8906EA05152A434D8806EA77
:1019600005152A43304DA84202D0354DA8421DD15D
:101970004FF67F752A40CD894FF6FF7606EA0515AA
:101980002A434FF6BF752A408D8806EA05152A437B
:101990004FF6FF352B404FF2FF752B400D8A06EABC
:1019A00085052B434D8A06EA85052B4383800483F6
:1019B0008D688563028470BD70B500240022002309
:1019C000058C4FF6FF6635400584028C8388848B36
:1019D0004FF68F752C404FF6FC752C400D882C432C
:1019E0004FF6FF552A408D894FF6FF7606EA05250A
:1019F0002A434D8806EA05252A430B4DA84202D00A
:101A00000F4DA84238D14FF2FF752A40CD894FF6CD
:101A1000FF7606EA05252A434FF6FF352A408D88D2
:101A200006EA05252A4319E00000014000040040B1
:101A300000080040000C004000100040001400406E
:101A400000040140004001400044014000480140C2
:101A500000180040001C0040002000404EF6FF75BA
:101A60002B404DF6FF752B400D8A06EA05152B43DA
:101A70004D8A06EA05152B43838084838D68C563F0
:101A8000028470BD70B5002200230024058C4EF640
:101A9000FF7635400584038C8488828B48F6FF7579
:101AA0002A404FF6FF452A400D884FF6FF7606EA9A
:101AB00005252A434DF6FF752B408D8906EA05352D
:101AC0002B434D8806EA05352B43FE4DA84202D034
:101AD000FD4DA84208D14BF6FF752C400D8A4FF6FC
:101AE000FF7606EA85152C43848082838D68056421
:101AF000038470BD002101804180818081608181EB
:101B0000C18101824182704770B5034600200024E4
:101B10001846183001258D40ACB21D8CA5431D849C
:101B200009B108290AD100EB610005684FF68F76EC
:101B3000354005600568154305600FE00D1FC5F3CE
:101B40004E052844056848F6FF763540056005686F
:101B50004FF6FF7606EA02263543056070BD416305
:101B6000704781637047C1637047016470470A46DC
:101B70000021018B4FF68F73194011430183704789
:101B80000A460021018B48F6FF7319404FF6FF7398
:101B900003EA02231943018370470A460021818B1F
:101BA0004FF68F7319401143818370470A46002115
:101BB000818B48F6FF7319404FF6FF7303EA022347
:101BC0001943818370470A460021018B4FF6F77352
:101BD00019401143018370470A460021018B4FF2DF
:101BE000FF7319404FF6FF7303EA02231943018381
:101BF00070470A460021818B4FF6F7731940114355
:101C0000818370470A460021818B4FF2FF73194090
:101C10004FF6FF7303EA02231943818370470A4694
:101C20000021018B4FF6FB7319401143018370476C
:101C30000A460021018B4FF6FF3319404FF6FF7320
:101C400003EA02231943018370470A460021818B6E
:101C50004FF6FB7319401143818370470A460021F8
:101C6000818B4FF6FF3319404FF6FF7303EA0223CF
:101C70001943818370470A460021018B4FF67F7319
:101C800019401143018370470A460021018BC1F3BB
:101C90000E014FF6FF7303EA0223194301837047D5
:101CA0000A460021818B4FF67F73194011438183CF
:101CB00070470A460021818BC1F30E014FF6FF7376
:101CC00003EA02231943818370470A460021018CED
:101CD0004FF6FD7319401143018470470A460021F5
:101CE000018C4FF6F77319401143018470470A467F
:101CF0000021018C4FF6DF7319404FF6FF7303EAA2
:101D000002131943018470470A460021018C4FF6E3
:101D10007F7319404FF6FF7303EA021319430184DE
:101D200070470A460021018C4FF6FF5319404FF6C9
:101D3000FF7303EA02231943018470470A46002116
:101D4000018C4FF2FF7319404FF6FF7303EA022331
:101D50001943018470470A460021018C4DF6FF7338
:101D600019404FF6FF7303EA0233194301847047A9
:101D700030B5002301248C40A3B2048C9C4304841E
:101D8000048C02FA01F5ADB22C43048430BD30B5A9
:101D9000002304248C40A3B2048C9C430484048C50
:101DA00002FA01F5ADB22C43048430BD828B4FF2B0
:101DB000FF331A408283828B4FF6FF7303EA0123BD
:101DC0001A4382837047F0B50C4615460021002265
:101DD0000026078C4EF6FF7C07EA0C070784818BF0
:101DE000028C4FF6FF7707EA043640F6FF4739408A
:101DF0004FF6FF7707EA052739434FF6FF7707EAE3
:101E00000337394345F6FF773A4046F480573A4363
:101E100081830284F0BD828B4FF6F3731A40828374
:101E2000828B0A4382837047F0B50C461546002129
:101E300000220026078C4FF6FF6C07EA0C07078488
:101E4000818B028C4FF6FF7707EA04264FF60C775A
:101E500039404FF6FF7707EA03172F4339434FF214
:101E6000FF573A4046F480773A4381830284F0BDBD
:101E7000028B4FF2FF331A400283028B4FF6FF733F
:101E800003EA01231A4302837047F0B50C46154656
:101E9000002100220026078C4FF6EF7C07EA0C0792
:101EA0000784018B028C4FF6FF7707EA041640F691
:101EB000FF4739404FF6FF7707EA033739434FF6BC
:101EC000FF7703E0000001400004014007EA052716
:101ED00039434FF65F773A4046F010073A430183A3
:101EE0000284F0BD028B4FF6F3731A400283028B1B
:101EF0000A4302837047F0B50C46154600210022C4
:101F0000068C4FF6FE773E400684018B028C4FF61E
:101F10000C7631407E1C06EA03162E4331434FF601
:101F2000F576324044F00106324301830284F0BD6D
:101F300070B505460C46208850B92389A28861886F
:101F40002846FFF7D8FFE1882846FFF7CBFF25E0BA
:101F5000208804280AD12389A28861882846FFF7AF
:101F600094FFE1882846FFF783FF17E020880828C0
:101F70000AD12389A28861882846FFF755FFE188A6
:101F80002846FFF748FF09E02389A2886188284690
:101F9000FFF719FFE1882846FFF708FF70BD002111
:101FA00001804180012181800021C1800181704731
:101FB0002DE9F04105460C4600260127608808B946
:101FC000022600E00026A088012801D1022700E0B7
:101FD00001272088A0B92389A28861882846FFF7B5
:101FE0008AFFE1882846FFF77DFF23893A4631467C
:101FF0002846FFF74AFFE1882846FFF739FF13E03C
:102000002389A28861882846FFF73FFFE188284698
:10201000FFF72EFF23893A4631462846FFF76BFF2C
:10202000E1882846FFF75EFFBDE8F0810146486B76
:1020300070470146886B70470146C86B7047014680
:10204000086C70470A884B881A438B881A43CB88E0
:102050001A430B891A434B891A438B891A43A0F8F8
:10206000442070470021018041808180C18001812E
:1020700041818181704731B1B0F8442042F400427F
:10208000A0F8442005E0B0F84420C2F30E02A0F806
:102090004420704721B1828842F00402828004E02B
:1020A00082884FF6FB731A408280704721B1828884
:1020B00042F00102828004E082884FF6FE731A40EB
:1020C000828070471AB183890B43838102E0838940
:1020D0008B43838170478182704702460020138AB8
:1020E0000B400BB1012000E000207047CA43028280
:1020F000704730B50246002000230024158A05EA07
:102100000103958905EA010413B10CB1012000E037
:10211000002030BDCA430282704741EA0203A0F8A2
:10212000483070471AB183890B43838102E0838969
:102130008B438381704721B1828842F008028280FC
:1021400004E082884FF6F7731A4082807047018955
:102150004FF6F8721140018170470A46002101894B
:102160004FF68F73194011430181704730B5044613
:102170000D4629462046FFF7F0FF208940F0070072
:10218000208130BD2DE9F04104460D4616461F461C
:10219000602D06D13B46012231462046FFF775FEF1
:1021A00005E03B46012231462046FFF7A4FE2946C2
:1021B0002046FFF7D2FF208940F007002081BDE8CC
:1021C000F08130B50C4600210189C9B24FF6FF7588
:1021D00005EA0325154325432943018130BD2DE937
:1021E000F04105460E4617469846002443463A46B7
:1021F00031462846FFF7E5FF2C894FF6F87004407A
:1022000044F007044FF68F70044044F070042C81B2
:10221000BDE8F081F0B504460D4616461F463B4624
:10222000324629462046FFF7CCFF208940F4804003
:102230002081F0BD82884FF68F731A408280828899
:102240000A438280704702894FF6F8731A40028170
:1022500002890A430281704702894FF67F731A4050
:10226000028102890A4302817047F0B50C46154687
:102270001E460021002200230189028B038C4FF6A9
:10228000F877394021434FF6FC473A4040F20117B6
:102290003A434FF6DD773B404FF6FF7707EA0617E4
:1022A0002F433B43018102830384F0BD21B1828827
:1022B00042F08002828004E082884FF67F731A40E9
:1022C00082807047A0F850107047000010B5044697
:1022D000FA48844208D101211020FFF700F90021BB
:1022E0001020FFF7FCF857E0F548844209D101219E
:1022F0004804FFF7E3F800214FF40030FFF7DEF861
:102300004AE0F048844209D101218804FFF7D6F859
:1023100000214FF48020FFF7D1F83DE0EA488442E5
:1023200009D10121C804FFF7C9F800214FF40020AA
:10233000FFF7C4F830E0E548844209D101210805DF
:10234000FFF7BCF800214FF48010FFF7B7F823E047
:10235000DF48844208D101212020FFF7C0F8002186
:102360002020FFF7BCF817E0DA48844209D10121A8
:102370008807FFF7A3F800214FF08040FFF79EF891
:102380000AE0D548844207D101214005FFF796F8BD
:1023900000216005FFF792F810BD2DE9FF470546C3
:1023A0000E460024A14600BFA046B08900B100BF80
:1023B0002C8A24F44054F08804432C82AC8941F2E6
:1023C0000C608443B0883189084371890843044311
:1023D000AC81AC8A24F44074B0890443AC82684672
:1023E000FEF7FDFEB548854202D0B948854202D1CC
:1023F000DDF80C9001E0DDF80890A88900F40040B9
:1024000040B109EBC90000EB091031684900B0FB8D
:10241000F1F707E009EBC90000EB0910316889000A
:10242000B0FBF1F76420B7FBF0F004012009642150
:1024300001FB1078A88900F4004040B1322000EB85
:10244000C800B0FBF1F000F00700044308E03220C0
:1024500000EB08106421B0FBF1F000F00F00044322
:102460002C81BDE8FF874FF4165101600021818067
:10247000C18001810C21418100218181704710B50B
:1024800002460020108A20F470600B884C88234399
:102490008C882343CC8823431843108210BD00212D
:1024A000018041808180C180704721B1828942F4DE
:1024B0000052828104E082894DF6FF731A408281C6
:1024C0007047028B02F47F420283028B0A4302832D
:1024D000704721B1828942F40042828103E08289FF
:1024E000C2F30E028281704721B1828A42F40062F7
:1024F000828204E0828A4FF2FF731A408282704720
:10250000C1F308028280704701468888C0F3080042
:102510007047028A4FF6F0731A400282028A0A4319
:102520000282704721B1828942F00202828104E076
:1025300082894FF6FD731A408281704782894FF27B
:10254000FF731A40828182890A4382817047028A1E
:102550004FF6DF731A400282028A0A4302827047F2
:1025600021B1028A42F48042028204E0028A4BF6E0
:10257000FF731A4002827047818941F00101818115
:10258000704721B1828A42F00802828204E0828A86
:102590004FF6F7731A4082827047028BD2B20283E1
:1025A000028B42EA01220283704721B1828A42F003
:1025B0002002828204E0828A4FF6DF731A40828210
:1025C000704721B1828A42F01002828204E0828A3E
:1025D0004FF6EF731A4082827047828A4FF6FB7380
:1025E0001A408282828A0A438282704721B1828A9B
:1025F00042F00202828204E0828A4FF6FD731A40A2
:10260000828270471AB1838A0B43838202E0838AF5
:102610008B4383827047F0B50346002400260025D3
:10262000002040F66A17B94200D100BF1846C1F336
:10263000421401F01F06012707FA06F5012C01D10B
:102640000C3004E0022C01D1103000E014301AB13B
:1026500007682F43076002E00768AF430760F0BDDB
:1026600002460020B1F5007F00D100BF13880B4067
:102670000BB1012000E00020704701F40072B2F5B8
:10268000007F00D100BFCA430280704770B5024688
:10269000002400230025002040F66A16B14200D134
:1026A00000BFC1F3421501F01F03012606FA03F330
:1026B000012D13D19689334017E00000001001402E
:1026C0000044004000480040004C004000500040E2
:1026D0000014014000780040007C0040022D02D12F
:1026E000168A334001E0968A33400C12012606FA1E
:1026F00004F41688344013B10CB1012000E000202E
:1027000070BD10B50022002340F66A14A14200D12A
:1027100000BF0A1201249440A3B2DC43048010BD20
:1027200010B5002807DA0A07140E324A00F00F032A
:102730001B1FD45403E00A07130E2F4A135410BD75
:102740007FB56846FEF74BFD4FF47A710198B0FBF8
:10275000F1F4E4082546681EB0F1807F00D30FE055
:10276000681E4FF0E02148610F214FF0FF30FFF766
:10277000D7FF00204FF0E02188610720086100BFEB
:102780000021481EFFF7CCFF6FF00400FDF7B6FEF6
:102790007FBD1A4A11684FF0E02252694FF0E023E2
:1027A0009B69D21A4FF47A735A434FF0E0235B6966
:1027B000B2FBF3F201EB4103C3EBC11302EBC30025
:1027C000704730B50446FFF7E4FF054600BFFFF74A
:1027D000E0FF401BA042FAD330BD10B5044603E031
:1027E0004FF47A70FFF7EDFF201EA4F101018CB2C7
:1027F000F6D110BD18ED00E000E400E02C00002050
:1028000010B510480068401C0E49086002F08BFDAE
:1028100010BD4FF0E02040694FF0E0218969401A77
:1028200000EE100AB8EE400A9FED071AC0EE010A4A
:102830000448006800EE100AB8EE400A30EE800A44
:10284000704700002C0000200010A44610B506F0D0
:1028500064FC02F03DFD06F060FC01F093FA00F02C
:1028600001F928214FF4C87000F0B2FC002404E004
:102870004FF47A70FFF7B1FF641C022CF8DB01F013
:102880004BF803F079FB03F0F3FB02E00020204952
:10289000C87003F09AFC0028F8D103F01CFD4FF437
:1028A000165000F077FF4FF4E13000F091FE02E0A7
:1028B00000201749C87002F05BFE0028F8D14FF4E1
:1028C000FA60FFF78AFF03F050FE4FF47A70FFF7CB
:1028D00084FF02E000200E49C87003F005FA0028CA
:1028E000F8D10C48006840B19620094908800220C0
:1028F00088700020C87000BFFEE74FF4967004494E
:102900000880022088700320C87000F075F810BDA0
:10291000940000202800002010B501218807FFF74F
:10292000E8FB00285DD02F480078401C2D49087036
:102930002D480078401C2C4908702C480078401C19
:102940002A49087003F04EFD27480078042804D176
:1029500000202549087003F0D5FA224800780328A2
:1029600002D100201F49087020480078142804DB99
:1029700000201E49087002F00DFF1D4890ED143A2A
:10298000F0EE432A90ED133AB0EE432A90ED123A5E
:10299000F0EE431A90ED023AB0EE431A90ED013A90
:1029A000F0EE430A90ED003AB0EE430A07F0BAF8B1
:1029B00007F019FD05F0E3FF03F0AAFA0D480088BF
:1029C00000EE100AB8EE400A05F002FC04F09FFD8C
:1029D00004F021FF05F0C2F84FF6FE704FF0804181
:1029E000088210BD3000002031000020320000209D
:1029F00094070020A40000201FB51C208DF80000C3
:102A000002208DF801008DF8020001208DF80300EE
:102A10006846FDF726FD01210846FEF7FAFC4FF057
:102A20008040FEF701FE41F2883002905320ADF85D
:102A300004000020ADF80C00ADF8060001A94FF02D
:102A40008040FEF79EFE01218807FFF74FFB012221
:102A500011469007FFF736FB01218807FEF71AFFA2
:102A60001FBD000000B587B001210420FEF7D1FC96
:102A700001210846FEF7DEFC01211820FEF780FC4C
:102A80001B208DF8040001208DF805008DF806004C
:102A90008DF8070001A8FDF7E4FC1E208DF8040066
:102AA00001208DF805008DF806008DF8070001A8BB
:102AB000FDF7D7FC4FF4D440059002208DF81800A4
:102AC00003208DF8190000208DF81A0002208DF8DF
:102AD0001B0005A9FB48FDF789FF01220921F948E0
:102AE000FEF70FF801220B21F648FEF70AF8012243
:102AF0000D21F448FEF705F801220E21F148FEF7FA
:102B000000F8A720F04908850020ADF808000A2049
:102B1000ADF80A000120ADF80C000020ADF80E0061
:102B2000ADF8100002A9E848FFF702FA0420ADF85A
:102B300008000A20ADF80A000120ADF80C000020C2
:102B4000ADF80E00ADF8100002A9DF48FFF7F0F96C
:102B50000820ADF808000A20ADF80A000120ADF801
:102B60000C000020ADF80E00ADF8100002A9D64808
:102B7000FFF7DEF90C20ADF808000A20ADF80A00D6
:102B80000120ADF80C000020ADF80E00ADF81000EB
:102B900002A9CD48FFF7CCF90121CB48FEF77AFE18
:102BA00001220221C848FFF78DFA01220421C648FC
:102BB000FFF788FA01220821C348FFF783FA0122B0
:102BC0001021C148FFF77EFA4FF4704005900220B3
:102BD0008DF8180003208DF8190000208DF81A00D8
:102BE00002208DF81B0005A9B848FDF7FFFE022260
:102BF0000C21B648FDF785FF02220D21B348FDF7F1
:102C000080FF02220E21B148FDF77BFF02220F2137
:102C1000AE48FDF776FF5320AD4908800020ADF89F
:102C200008000A20ADF80A000120ADF80C000020D1
:102C3000ADF80E00ADF8100002A9A5482838FFF73E
:102C400077F90420ADF808000A20ADF80A00012049
:102C5000ADF80C000020ADF80E00ADF8100002A990
:102C60009B482838FFF764F90820ADF808000A20CF
:102C7000ADF80A000120ADF80C000020ADF80E0000
:102C8000ADF8100002A992482838FFF751F90C203E
:102C9000ADF808000A20ADF80A000120ADF80C00DC
:102CA0000020ADF80E00ADF8100002A988482838C1
:102CB000FFF73EF9012186482838FEF7EBFD012297
:102CC000022183482838FFF7FDF9012204218048BA
:102CD0002838FFF7F7F9012208217D482838FFF747
:102CE000F1F9012210217A482838FFF7EBF907B0F3
:102CF00000BD10B57448008A00F0020000283ED0E4
:102D00004FF6FD70704908824FF6FF5008826D48FB
:102D1000006900F4007028B10846FFF787F96D4993
:102D200008802CE06848FFF781F96B490880084665
:102D3000008868490988884207DB67480088654938
:102D40000988401A6549C8810AE0624800884FF640
:102D5000FF71081A604909880844401C5F49C8810E
:102D60005E48C089B0F5FA7F05DB5C48C08940F653
:102D7000C411884203DD4FF47A705849C881524823
:102D8000008A00F00400E8B34FF6FB704E49088259
:102D90004FF6FF3008824B48006900F4006028B10C
:102DA0000846FFF746F94E4908802EE04648FFF7EF
:102DB00040F94C49088008460088494909888842FA
:102DC00007DB4848008846490988401A43498881FA
:102DD0000AE0434800884FF6FF71081A4149098804
:102DE0000844401C3D4988813C488089B0F5FA7F01
:102DF00005DB3A48808940F6C411884205DD4FF46E
:102E00007A7000E001E0354988812F48008A00F09F
:102E10000800E8B34FF6F7702B4908824FF2FF70B5
:102E200008822848006900F4005028B10846FFF7DE
:102E300003F92D4908802EE02348FFF7FDF82B49C0
:102E400008800846008828490988884207DB274807
:102E5000008825490988401A204948810AE022480B
:102E600000884FF6FF71081A204909880844401C61
:102E70001A49488119484089B0F5FA7F05DB17489F
:102E8000408940F6C411884205DD4FF47A7000E0B5
:102E900001E0124948810C48008A00F0100048B354
:102EA0004FF6EF70084908824EF6FF700882054819
:102EB000006900F48040F0B10846FFF7C0F80C4903
:102EC000088045E00010024000000140000C024074
:102ED000280800403400002036000020B003002005
:102EE000380000203A0000203C0000203E00002076
:102EF000400000202CE0A848FFF7A1F8A74908806F
:102F000008460088A6490988884207DBA34800884C
:102F1000A3490988401AA34908810AE0A04800880B
:102F20004FF6FF71081A9D4909880844401C9D49C5
:102F300008819C480089B0F5FA7F05DB9948008933
:102F400040F6C411884203DD4FF47A709549088138
:102F500010BD10B504F03EFB9348008800F002005D
:102F6000002840D04FF6FD708F4908804FF6FF5083
:102F700008808E48006800F4805030B18A481038CC
:102F8000FFF754F88A4908802DE087481038FFF78A
:102F90004DF8884908800846008885490988884294
:102FA00007DB8448008882490988401A7D490880E7
:102FB0000AE07F4800884FF6FF71081A7D490988AA
:102FC0000844401C7749088076480088B0F5FA7FAD
:102FD00005DB7448008840F6C411884203DD40F2E6
:102FE000DC50704908807048008800F00400E8B3A5
:102FF0004FF6FB706C4908804FF6FF3008806B4835
:10300000006800F4005030B167481038FFF711F83D
:10301000694908802FE064481038FFF70AF86749CB
:1030200008800846008864490988884207DB6348AD
:10303000008861490988401A5A4948800AE05E4878
:1030400000884FF6FF71081A5C4909880844401C43
:103050005449488053484088B0F5FA7F05DB514811
:10306000408840F6C411884205DD00E003E040F2EC
:10307000DC504C4948804C48008800F00800E8B318
:103080004FF6F770484908804FF2FF7008804748B4
:10309000006800F4804030B143481038FEF7CCFFA0
:1030A000474908802FE040481038FEF7C5FF4549E2
:1030B00008800846008842490988884207DB414861
:1030C00000883F490988401A364988800AE03C4810
:1030D00000884FF6FF71081A3A4909880844401CD5
:1030E000304988802F488088B0F5FA7F05DB2D486D
:1030F000808840F6C411884205DD00E003E04FF40B
:103100007A70284988802848008800F01000E8B3C9
:103110004FF6EF70244908804EF6FF700880234870
:10312000006800F4004030B11F481038FEF787FFF8
:10313000254908802FE01C481038FEF780FF2349FE
:1031400008800846008820490988884207DB1F4814
:1031500000881D490988401A1249C8800AE01A48A7
:1031600000884FF6FF71081A184909880844401C66
:103170000C49C8800B48C088B0F5FA7F05DB0948C8
:10318000C08840F6C411884205DD00E003E040F24B
:10319000DC500449C88010BD0000014042000020FE
:1031A00040000020B003002010080040100C024036
:1031B0004400002046000020480000204A00002073
:1031C0004C0000204E000020500000205200002043
:1031D000F0B58BB007460C4600BF42F2107007FBFB
:1031E00000F508A8FEF701FB03A8FEF783FC0DB964
:1031F000012004E0B248854200D900E02846054697
:1032000001210220FEF705F901210820FEF701F94E
:1032100001210220FEF70EF901211720FEF7B0F878
:103220000C20019002208DF8080003208DF8090081
:1032300000208DF80A0001208DF80B0001A9A1489B
:10324000FDF7D4FB022211469E48FDF75AFC0222EC
:1032500003219C48FDF755FC9B4800684008B0FBE3
:10326000F5F0401E86B242F210700990ADF8206071
:103270000020ADF82800ADF8220008A99348FEF719
:1032800080FA6020ADF80C000020ADF81800012095
:10329000ADF80E0064206043059003A98B48FEF74B
:1032A0008BFB08218948FEF7A4FC0120ADF80E0035
:1032B00064206043059003A98448FEF7E3FB0821DE
:1032C0008248FEF79FFC01218048FEF7C5FA0121E4
:1032D0007E48FEF7DFFAC020019002208DF808003A
:1032E00003208DF8090000208DF80A0001208DF8D8
:1032F0000B0001A97348FDF779FB0320019001A998
:103300007348FDF773FB022206216E48FDF7F9FBB7
:10331000022207216B48FDF7F4FB022200216C48D2
:10332000FDF7EFFB022201216948FDF7EAFB664841
:1033300000684008B0FBF5F0401E86B242F2107003
:103340000990ADF820600020ADF82800ADF822000B
:103350008DF82A0008A95F48FEF713FA6020ADF83F
:103360000C000020ADF81000ADF818000820ADF8F2
:103370001A004001ADF81C000020ADF81E0001202D
:10338000ADF80E0064206043059003A95148FEF794
:103390008DFA08214F48FEF716FC64206043059023
:1033A00003A94C48FEF7BBFA08214A48FEF714FC73
:1033B00064206043059003A94648FEF7FDFA082102
:1033C0004448FEF716FC64206043059003A9414879
:1033D000FEF758FB08213F48FEF714FC01213D4849
:1033E000FEF749FE01213B48FEF736FA0121394834
:1033F000FEF750FA4FF44070019002208DF808005B
:1034000003208DF8090000208DF80A0001208DF8B6
:103410000B0001A93048FDF7E9FA032208212E48E4
:10342000FDF76FFB032209212B48FDF76AFB2648B5
:103430000068B0FBF5F0401E86B242F210700990B1
:10344000ADF820600020ADF82800ADF822008DF81E
:103450002A0008A92148FEF794F96020ADF80C0075
:103460000020ADF81000ADF818000820ADF81A00E3
:103470004001ADF81C000020ADF81E006420604340
:10348000059003A91548FEF797FA6420604305905C
:1034900003A91248FEF7F6FA01211048FEF7EBFDEA
:1034A00001210E48FEF7D8F901210C48FEF7F2F988
:1034B0000348854202D900200BB0F0BD0120FBE794
:1034C00000BD01050000024000000020000C00408B
:1034D00000040240000400400008024000040140D3
:1034E00000BF704700BF384A128802F04002002A2D
:1034F000F9D0C2B2344B9A80704710B588B00446F8
:1035000001210846FDF73CFF01211020FDF792FF45
:10351000072209212D48FDF7F4FA07220A212B483A
:10352000FDF7EFFA4FF4C060069002208DF81C0002
:103530008DF81D0000208DF81E0001208DF81F0061
:1035400006A92248FDF752FA02940020ADF80C00BB
:10355000ADF80E00ADF81000ADF814000C20ADF879
:10356000120002A91848FEF718FF01211648FEF7BD
:103570009CFF012240F225511348FFF74CF825200B
:103580008DF8040003208DF805008DF80600012059
:103590008DF8070001A8FCF764FF08B010BD10B556
:1035A000024600200BE000BF074B1B8803F080039E
:1035B000002BF9D0135C044CA380431CD8B2884282
:1035C000F1DB10BD70470000001001400000024018
:1035D00010B596B0044601214804FDF71AFF0121F9
:1035E0004805FDF7CDFE11208DF8540002208DF81E
:1035F000550000208DF8560001208DF8570015A8C1
:10360000FCF72FFF5F48FCF797FF4FF0006000903A
:103610005D4801900020029040200390002004901B
:1036200005904FF480600690002007900890099064
:103630004FF400300A9000200B9001200C900020E5
:103640000D900E9069464F48FDF718F801221021A1
:103650004C48FDF7DAF80020ADF84000ADF8420024
:10366000ADF84400ADF848000C20ADF846000F94CA
:103670000FA94548001FFEF790FE002240F2266188
:103680004148001FFEF7C7FF012240F225513E4886
:10369000001FFEF7C0FF002240F224413A48001FFD
:1036A000FEF7B9FF26208DF8540000208DF8550054
:1036B0008DF8560001208DF8570015A8FCF7D1FEB3
:1036C000012280213048001FFEF79CFF01212E4877
:1036D000001FFEF7EAFE01210820FDF751FE072238
:1036E00005212A48FDF70DFA072206212748FDF794
:1036F00008FA2020139002208DF850008DF8510018
:1037000000208DF8520001208DF8530013A91F48A6
:10371000FDF76CF94020139002208DF850008DF8D1
:10372000510001208DF8520000208DF8530013A99C
:103730001648FDF75BF916B010BD10B50246002023
:103740000CE000BF104B1B1F1B8803F08003002BF5
:10375000F8D0135C0C4C2380431CD8B28842F0DBB9
:1037600010BD0848A03840680949084048B10846DB
:103770000449A039C8600348006820F00100C1F87E
:10378000A0007047A060024004440040000C0240CA
:103790000080202010B588B0044601210805FDF7FF
:1037A00038FE01210420FDF7EBFD01210820FDF783
:1037B000E7FD35208DF80C0002208DF80D0001206A
:1037C0008DF80E008DF80F0003A8FCF74AFE0822C2
:1037D0000C214B48FDF795F9082202214948FDF7D5
:1037E00090F94FF48050019002208DF808008DF878
:1037F000090000208DF80A0001208DF80B0001A9B6
:103800003F48FDF7F3F80420019002208DF80800EE
:103810008DF8090001208DF80A0000208DF80B00BA
:1038200001A93848FDF7E2F804940020ADF814002F
:10383000ADF81600ADF81800ADF81C000C20ADF87E
:103840001A0004A93048FEF7A8FD012240F22551D4
:103850002D48FEF7E0FE01212B48FEF726FE08B0BA
:1038600010BD10B5002440F225512748FEF70EFF89
:1038700050B140F225512448FEF743FF224880888A
:10388000C4B2204601F093FF40F227711E48FEF7B4
:10389000FDFEA8B11D4801780078401C1B4A10703D
:1038A0001B48405C184988801046007819490978FF
:1038B000884205D11448808920F08000124988810F
:1038C00010BD70B505460E4600240AE0295D11487A
:1038D00002780078401C0F4B18700D488154601C12
:1038E000C4B2B442F2DB0848808900F0800028B9F5
:1038F000012240F227710448FEF78DFE70BD0000E2
:1039000000080240000C024000500040540000201B
:10391000E40300205500002000B58BB001210220F7
:10392000FDF72EFD01214805FDF773FDC02009902C
:1039300002208DF8280001208DF82A008DF82B0038
:1039400002208DF8290009A9FE48FDF74FF804224E
:103950000621FC48FDF7D5F804220721F948FDF7B8
:10396000D0F8F94805900020ADF818004FF48040D9
:10397000ADF81A000020ADF81C004FF48060ADF8DF
:103980001E000001ADF8200005A9F048FDF71BF965
:103990000121EE48FDF793F901A8FDF720FC42F262
:1039A00010710198B0FBF1F0E94908600BB000BD5F
:1039B0002DE9F04106460F461546E548046800BF6C
:1039C000601E041E06D04FF400313046FDF7B4FAF5
:1039D0000028F5D114B90120DE49087001213046D4
:1039E000FDF790F9DA48046800BF601E041E05D098
:1039F000D9493046FDF77EFA0028F6D014B90120E7
:103A0000D4490870002239463046FDF793F9D04872
:103A1000046800BF601E041E05D0D0493046FDF783
:103A200069FA0028F6D014B90120CA49087029465D
:103A30003046FDF703FAC648046800BF601E041E46
:103A400006D0C649891C3046FDF754FA0028F5D047
:103A500014B90120BF49087001213046FDF752F921
:103A6000BB48046800BF601E041E05D0BA4930463A
:103A7000FDF740FA0028F6D014B90120B5490870C6
:103A8000012239463046FDF755F9B148046800BFB8
:103A9000601E041E06D0B049491C3046FDF72AFAC4
:103AA0000028F5D014B90120AA4908700021304639
:103AB000FDF748F901213046FDF730F9A4480468C4
:103AC00000BF601E041E06D0A3493F313046FDF7FB
:103AD00011FA0028F5D014B901209E49087030462B
:103AE000FDF7AEF980464046BDE8F0812DE9F04192
:103AF0000746884615461E469548046800BF4FF4A1
:103B000000313846FDF718FA0028F8D100BF601ED2
:103B1000041E06D04FF400313846FDF70DFA002898
:103B2000F5D114B901208B49087001213846FDF701
:103B3000E9F88748046800BF601E041E05D0864966
:103B40003846FDF7D7F90028F6D014B9012081498D
:103B50000870002241463846FDF7ECF87C480468BE
:103B600000BF601E041E05D07C493846FDF7C2F92F
:103B70000028F6D014B90120764908702946384645
:103B8000FDF75CF97248046800BF601E041E06D091
:103B90007249891C3846FDF7ADF90028F5D014B9F3
:103BA00001206C49087031463846FDF747F96848EE
:103BB000046800BF601E041E06D06849891C384690
:103BC000FDF798F90028F5D014B901206149087073
:103BD00001213846FDF7A2F8BDE8F0812DE9F04754
:103BE0008046894617461D46089E5948046800BF0E
:103BF000601E041E06D04FF400314046FDF79CF9CC
:103C00000028F5D114B9012052490870012140461D
:103C1000FDF778F84E48046800BF601E041E05D00A
:103C20004D494046FDF766F90028F6D014B9012049
:103C300048490870002249464046FDF77BF8444851
:103C4000046800BF601E041E05D044494046FDF7CD
:103C500051F90028F6D014B901203E4908703946C0
:103C60004046FDF7EBF83A48046800BF601E041EAA
:103C700006D03A49891C4046FDF73CF90028F5D0AA
:103C800014B901203349087001214046FDF73AF884
:103C90002F48046800BF601E041E05D02E49404610
:103CA000FDF728F90028F6D014B901202949087039
:103CB000012249464046FDF73DF82548046800BF0B
:103CC000601E041E06D02449491C4046FDF712F927
:103CD0000028F5D014B901201E49087046E0012DD6
:103CE00019D100214046FDF72DF81948046800BF9E
:103CF000601E041E06D018493F314046FDF7FAF811
:103D00000028F5D014B90120124908704046FDF78B
:103D100097F8307027E001214046FDF713F80C4872
:103D2000046800BF601E041E06D00B493F314046A8
:103D3000FDF7E0F80028F5D014B901200549087016
:103D400040460DE000040240801A06000054004086
:103D5000580000205C0000200100030082000700E2
:103D6000FDF76EF83070681EC5B2761C002DB6D116
:103D700000214046FCF7E6FF01214046FCF7CEFF5C
:103D8000BDE8F08710B506F0F3FB012006F0FBFB61
:103D900010BD70B5024600200AE0145C974B1D78F8
:103DA0001B785B1C954E3370954B5C55431CD8B209
:103DB0008842F2DB70BD10B59048007891490978CF
:103DC00088425BDD8D4800788E490978401A3F288B
:103DD0001BDB00208C4908703F208C4908700024B0
:103DE0000BE0884801780078401C864A10708448AF
:103DF000415C864A601C1154C4B23F2CF1DB402266
:103E00008249002007F04BFCA0E07F480078401C6E
:103E10007D490870084600787D4909788842F3D1C9
:103E20000020794908707548007876490978401A69
:103E300076490870002015E070490978714A1278B7
:103E4000891A814208DD6F49097801446C4A525C45
:103E50006E4B411C5A5403E000226C4B411C5A54D7
:103E6000411CC8B23F28E7DB644800786549087008
:103E700040226649002007F012FC67E05F480078A6
:103E800060490978884261DA5E480078C0F5807040
:103E90005A49097808443F281BDB00205A4908701A
:103EA0003F205A49087000240BE0564801780078FA
:103EB000401C544A10705248415C544A601C1154D2
:103EC000C4B23F2CF1DB40225049002007F0E7FB51
:103ED0003CE04D480078401C4B490870084600788B
:103EE0004B490978884231D100204749087045483C
:103EF0000078404241490978084444490870002448
:103F000018E040480078C0F580703C4909780844C2
:103F1000A04209DD3B4800782044C0B23849095C22
:103F20003A4A601C115403E00021384A601C1154C5
:103F3000601CC4B23F2CE4DB304800783149087083
:103F400040223249002007F0AAFB00BF10BD10B587
:103F50000446012C02D0032C11D10EE059B923B133
:103F6000012B05D0022B04D100E000BF402010BD82
:103F700000BF00BF00BF00BF01E00120F7E700BFA6
:103F80000020F4E72DE9F0470746894614469A4693
:103F9000DDF82080022F02D0032F2CD12AE0607898
:103FA000AA2826D1A078AF2823D10026012504E035
:103FB000605D3044C6B2681CC5B22078A842F7DC08
:103FC0002078205CB04211D1207910280BDB607979
:103FD000152808DC207946EA002000B20D49088047
:103FE000EF2002F004FE601C02F034FD002060703F
:103FF00000BF00E000BF00BFBDE8F0875F00002009
:10400000E40400205E00002060000020E4050020A1
:104010005D00002070010020FD490968FD4AB1FBE8
:10402000F2F1484307E000BF00BF00BF00BF00BF80
:1040300000BF00BF00BF011EA0F10100F3D1704717
:10404000432000F01F02012191404209920002F139
:10405000E022C2F8001100BF704700B5EE480068CA
:1040600040F00100EC490860EC48006820F4400092
:1040700040F40000E94908600846406820F4006008
:1040800048600846406A20F4704040F42041E3480C
:104090004162806840F44000E04988600846C0689A
:1040A00020F44000C8600846006820F0407040F0EE
:1040B000007008600846406820F480504860084658
:1040C000406A20F4702040F42021D4484162806886
:1040D00040F04070D14988600846C06820F04070C8
:1040E000C860CD48001D006840F08000CA49091D25
:1040F00008606420FFF790FFC7481C38006840F054
:104100008000C5491C3908606420FFF785FFC2485C
:104110001C38006820F08000BF491C3908604FF44B
:10412000C870FFF779FF4FF0A040C06840F0400032
:104130004FF0A041C860C820FFF76EFF4FF47A73BC
:1041400005E003B90AE05B1E0A20FFF765FF4FF0A8
:10415000A040006900F000400028F2D000BF4FF0FE
:10416000A040006940F001004FF0A04108614FF409
:104170007A7305E003B90AE05B1E0A20FFF74CFFE3
:104180004FF0A040006900F001000028F2D100BF0C
:104190001E20FFF741FF4FF0A040806820F0010093
:1041A0004FF0A04188600846806B20F4402088636F
:1041B0000846806B40F4001088639948006840F01E
:1041C0000200974908604FF0A040C06820F470508A
:1041D00040F410504FF0A041C8600846C06840F05D
:1041E0008040C8604FF47A70FFF716FF8C48001FBC
:1041F000006840F003008A49091F08608948006888
:1042000008B1082000E00020874908434FF0A04192
:104210008861FFF715FF4FF0A040806840F08100F3
:104220004FF0A041886000BD70B14FF0A041896B94
:1042300041F450214FF0A04291637949096821F07F
:104240000201774A11600DE07549096841F00201E9
:10425000734A11604FF0A041896B21F440214FF067
:10426000A0429163704749B16D4A121F126822F44F
:10427000FE6242EA00126A4B1B1F1A60704710B5BB
:1042800000206A4908606A49086065491031086081
:10429000091F0860002426E06648E10050F821006C
:1042A00000F0004028B14FF090416248E20040F831
:1042B00022105B48FC30E10050F8210000F0004083
:1042C00030B14FF090415648FC30E20040F82210E7
:1042D0001B215948E20040F8221056480830E200FD
:1042E00040F82210641C022CD6D301210020FFF7D5
:1042F000BAFF4FF001104A49183108600B204849B5
:10430000103108600320091F086040204FF0A041D1
:1043100048624A488862494810304949086047481D
:1043200020304FF0A041C1F80801444830304449E2
:104330000831086043483F491031086010BD70479C
:10434000704700B53648006840F001003449086005
:104350003220FFF761FE3248006820F0010030494A
:10436000086000BD704720F080004FF0A042126945
:1043700022F4F86242EA801242F020024FF0A04399
:104380001A610A2104E00A1EA1F1010100D106E030
:104390004FF0A042126902F02002002AF3D100BFC0
:1043A00070472349096821F00101214A11607047D3
:1043B00070B501468C7824F080008A88CC7804F0AF
:1043C00003038C7804F080040CB3154C1834246873
:1043D000012585402C43124D18352C60840544EA94
:1043E0008344C2F30A052C43134D083DC60045F82B
:1043F000264003F00304012C56D92C46C50054F87E
:10440000254044F080550C4C083CC6001CE01EE0E2
:1044100000000020A0860100303802400000024069
:104420000408005074D6000810380C808800002062
:1044300084000020000B00500809005040001000CC
:10444000040100504000082044F826502CE0C2F33C
:104450000A04FE4D45F82040FD4C246800F110058B
:104460000126AE403443FA4D2C60C2F30A0444EAFC
:104470008345F84CC60044F82650C2F30A0444F4BD
:104480000025F44C1034C60044F8265003F0030411
:10449000012C09D9EF4CC50054F8254044F0805553
:1044A000EC4CC60044F8265070BD704700F0800107
:1044B000C9B320F08000E649E431C20051F822106F
:1044C000E54A1143E24AE432C30042F823101146A0
:1044D000C20051F8221001F0004159B1DC49E43129
:1044E000C20051F8221041F08042D949E431C300A2
:1044F00041F8232001218140D84A12688A43D749D4
:104500000A60D349E431C20051F82210C1F381415D
:1045100001292ED14FF0A041896941F480114FF05B
:10452000A042916125E0FFE7CA49C20051F822107C
:10453000C1F38141012912D14FF0A041896941F4B1
:1045400000414FF0A0429161C249C20051F82210CF
:1045500041F40042BF49C30041F8232009E0BD49AE
:10456000C20051F82220BE490A43BA49C30041F8AB
:104570002320704770B5002200F08004002C54D036
:1045800020F08000012112E0B14CE434CD0054F859
:10459000254004F400444CB1AD4CE434CD0054F853
:1045A0002540C4F38144012C00D1521C491C01292F
:1045B000EAD901248440A94D2D68A543A74C256064
:1045C000012A07D14FF0A044A46924F480144FF0CD
:1045D000A045AC619E4CE434C50054F8254004F07D
:1045E00000445CB19A4CE434C50054F8254044F0D2
:1045F0008045974CE434C60044F82650944CE4348B
:10460000C50054F8254044F00065914CE434C600E0
:1046100044F82650C50054F8254024F400458C4C3D
:10462000E434C60044F8265074E0012110E0894CBF
:10463000CD0054F8254004F4004444B1854CCD002D
:1046400054F82540C4F38144012C00D1521C491C6C
:104650000129ECD9012A07D14FF0A044A46924F420
:1046600000444FF0A045AC61794C183C246844F4F8
:104670000074774D183D2C604FF47A7304E01C1ED3
:10468000A3F1010300D106E04FF0A044646904F0F7
:104690008004002CF3D000BF6E4CC50054F82540B8
:1046A00004F000444CB16B4CC50054F8254044F074
:1046B0008045684CC60044F82650664CC50054F846
:1046C000254044F00065634CC60044F82650C50000
:1046D00054F8254024F400455E4CC60044F82650AA
:1046E0004FF47A7304E01C1EA3F1010300D108E02B
:1046F000584C0834C50054F8254004F00204002C3E
:10470000F1D000BF524C183C246844F48064504DF2
:10471000183D2C6070BD4E4814380068C0F30D2061
:10472000704710B5044604F0800000285FD024F0E4
:1047300080040120A040494909688143474801603D
:104740004348E430E10050F8210000F0004058B147
:104750003F48E430E10050F8210040F080413C48FF
:10476000E430E20040F822103948E430E10050F82B
:10477000210040F000613648E430E20040F82210A9
:1047800044F08000FFF7EFFD3148E430E10050F8DD
:104790002100C0F38140012829D1FFF7BCFF00F0C0
:1047A000010060B12A48E430E10050F8210040F0F7
:1047B00080512748E430E20040F822100BE0244802
:1047C000E430E10050F8210040F000512048E4308E
:1047D000E20040F822101E48E430E10050F82100C9
:1047E00040F004411A48E430E20040F8221010BDC5
:1047F00070B5044604F08000002858D114481838D9
:10480000006840F400701249183908604FF47A7556
:1048100004E0281EA5F1010500D106E04FF0A040FC
:10482000406900F080000028F3D000BF0948E10093
:1048300050F8210000F00040B0B10648E10050F807
:10484000210040F080410348E2000BE064000020BA
:104850001C080050000B005000800008840000205D
:104860000080008440F82210FE48E10050F821004A
:1048700040F40011FB48E20040F822104FF47A7532
:1048800004E0281EA5F1010500D108E0F548083034
:10489000E10050F8210000F002000028F1D000BF34
:1048A000F148006840F48060EF49086025E024F09A
:1048B0008004ED48FC30E10050F8210000F0004099
:1048C00058B1E948FC30E10050F8210040F0804147
:1048D000E548FC30E20040F82210E348FC30E100FB
:1048E00050F8210040F40011DF48FC30E20040F8AD
:1048F000221044F08000FFF736FD70BD10B504466D
:1049000004F08000D8B9D748E10050F82100C0F386
:10491000814001284ED9D348E10050F8210040F0F1
:104920008051D048E20040F82210E10050F8210008
:1049300020F40011CB48E20040F822103AE024F0C5
:104940008004C948FC30E10050F8210000F000402C
:1049500058B1C548FC30E10050F8210040F08041DA
:10496000C148FC30E20040F8221044F08000FFF71C
:10497000FAFCBD48FC30E10050F82100C0F3814052
:1049800001280BD9B848FC30E10050F8210040F074
:104990008051B548FC30E20040F82210B248FC30AB
:1049A000E10050F8210020F40011AF48FC30E20093
:1049B00040F8221010BD10B5044604F0800020B16C
:1049C00044F08000FFF7CFFC17E04FF0A0400069F3
:1049D00040F010004FF0A041086100BF00BF00BFD1
:1049E00000BF00BF00BF00BF00BF00BF00BF00BFCF
:1049F00000BF00BF00BF00BF00BF10BD70B50246C2
:104A00000C469848D60050F8260000F4004008B93B
:104A1000002070BD9348D60050F82600C0F38140B6
:104A2000012800D100E000200546ADB18F480068A4
:104A300090B98F4850F82230002105E08D4850F899
:104A40002200405C6054491C9942F7D30020884EF4
:104A500046F822001846DCE74FF0A040006AC0F399
:104A60000A137DB17F481030D60050F82600824EE0
:104A7000304018B97E4840F8223003E000207C4ED8
:104A800046F82200002104E07C4800682060241DD4
:104A9000491CD81CB1EB900FF6D300BF4FF0A040DB
:104AA000406900F010000028F8D04FF0A040006AE4
:104AB0004FF0A040806940F010004FF0A046B06178
:104AC0001846A6E7F0B5034623F080036648FC309D
:104AD000DF0050F8270000F4004008B90020F0BDC6
:104AE0006148FC30DF0050F82700C0F38140012806
:104AF00000D100E0002006466148006800283ED151
:104B0000604850F82300B0B3012098405E4F3F68E2
:104B1000384000B186B35D4840F82320594850F82A
:104B20002350D01C84083CB102E0086801C5091D6F
:104B3000201EA4F10104F8D1002E79D10120984063
:104B4000514F3F683843504F38604748FC30DF00D2
:104B500050F8270040F000674348FC304FEAC30C90
:104B600040F82C7040480C30006840F040003E4F48
:104B70000C3738605CE002E0FFE70020AFE73AB1B5
:104B800000BF4348DF0050F82700B2EB800FF8D891
:104B900042F4002040F000573D4808384FEAC30C6B
:104BA00040F82C70FEB1FFF7B6FD00F0010068B1CF
:104BB00037481838DF0050F8270040F08057344855
:104BC00018384FEAC30C40F82C700CE03048183805
:104BD000DF0050F8270040F000572D4818384FEA02
:104BE000C30C40F82C702A481838DF0050F8270012
:104BF00040F00447264818384FEAC30C40F82C70A0
:104C000072B10D46D01C840806E00868DFF86CC05D
:104C10000CEB03373860091D201EA4F10104F4D108
:104C200036B901209840184F3F68874316480760FF
:104C3000104654E72DE9F0414FF0A04040694FF095
:104C4000A041896900EA010606F4805048B3FFF7E5
:104C500016FB05F09EFC0F48006810B10D48006877
:104C6000804719E0000B0050040800508C00002021
:104C700084060020640600200000F87F0010005029
:104C800088000020740000208400002074060020AA
:104C90001809005064D600084FF480504FF0A0412E
:104CA000486106F4006060B1FFF749FBFE48006808
:104CB00010B1FD48006880474FF400604FF0A041FC
:104CC000486106F0004060B1FFF73AFBF748006822
:104CD00010B1F648006880474FF000404FF0A04107
:104CE000486106F40050A8B3F148006820F00300C2
:104CF000EF4908604020082804D0102809D0202857
:104D000015D10DE0EA48006840F00300E84908606A
:104D10000DE0E748006840F00200E549086006E061
:104D2000E348006840F00100E149086000BF00BFAF
:104D3000DF48FC38006840F48070DD49FC390860C9
:104D40000846006840F4806008604FF400504FF05F
:104D5000A041486106F0080048B1D648006810B18B
:104D6000D4480068804708204FF0A041486106F011
:104D7000100088B34FF0A040D0F81C8008F00F045A
:104D8000C8F3434002280BD0062830D1CA4850F857
:104D9000240020B1C84850F82410022088472AE097
:104DA0004FF0A040806920F010004FF0A0418861D2
:104DB000C248E10050F82100C0F3814001280CD125
:104DC000BF490860BF4850F824102046FFF716FE80
:104DD0000020BB49086009E00EE0B74850F8240005
:104DE00020B1B54850F824100420884703E04FF064
:104DF000A040006A00BF00BF06F4002000287DD05C
:104E0000AB48E8380068AA49E439096808404FF619
:104E1000FF7101EA104700259CE000240AE027FA10
:104E200005F000F0010020B12C460120A840874386
:104E300002E06D1C022DF2D300BFA0480830E10053
:104E400050F8210000F00200F0B39C48E10050F857
:104E50002100C0F3814001282DD19B4850F8240047
:104E600040F4002195481030E20040F82210FFF78E
:104E700052FC00F0010050B19048E10050F82100D0
:104E800040F080518D48E20040F8221009E08B4844
:104E9000E10050F8210040F000518848E20040F85D
:104EA00022108648E10050F8210040F00441834878
:104EB000E20040F8221081480830E10050F821005B
:104EC00040F002017D4800E003E00830E20040F8D5
:104ED00022107A480830E10050F8210000F001006B
:104EE00076490831E20051F8221001F00801084328
:104EF00080B37248E10050F8210000E02DE0C0F3DB
:104F0000814001281AD0704850F8240040F4002154
:104F10006A481030E20040F822102CB9006840F0D6
:104F200000506649103108606448E10050F82100E3
:104F300040F004416148E20040F822105F48083028
:104F4000E10050F8210040F001015C480830E20027
:104F500040F82210002F7FF460AF06F48020002874
:104F60007ED05348E83800685149E4390968084060
:104F700087B20025DAE000240AE027FA05F000F005
:104F8000010020B12C460120A840874302E06D1C9F
:104F9000022DF2D300BF46480830E10050F821004E
:104FA00000F0020060B3022141480830E20040F8FE
:104FB00022103F48E10050F82100C0F38140012851
:104FC0001ED1A040414909680840C8B144F08000A2
:104FD000FFF7C9F901203E4908603E4850F82420F7
:104FE0003D4850F824102046FFF76CFD002038495A
:104FF00008600120A04035490968814333480160B9
:105000002B480830E10050F8210000F0400040B388
:105010002748E10050F82100C0F38140012837D033
:105020002D4850F8240018B30120A0402B490968EE
:105030000840E8B1012026490860264850F824209D
:10504000254850F824102046FFF73CFD0020204959
:1050500008602248006850B91548F038006801E03F
:1050600067E015E020F040001149F03908605DE08C
:105070000F48E10050F8210040F080610C48E20048
:1050800040F8221040210A480830E20040F822107F
:1050900007480830E10050F8210000F00100B8B3E3
:1050A0000121034808301BE068D600086CD60008D0
:1050B0000009005074D600087CD60008000B005090
:1050C0008C00002064060020640000209000002076
:1050D0008800002074060020740000208400002056
:1050E000E20040F822100120714908607148E10097
:1050F00050F82100C0F3814001280AD16E4850F8D1
:1051000024206E4850F824102046FFF7DBFC09E00D
:105110000BE06B4850F8240020B1694850F8241087
:105120000820884700206249086000BF002F7FF4F4
:1051300022AF06F40040D0B301246BE06148E100E7
:1051400050F82100C0F38140012800D061E05D48A3
:10515000E10050F82100C0F3C03000B959E04FF031
:10516000A040406900F4001010B3FFF7D4FA00F03B
:1051700001015448E20050F82200C0F3004081428F
:1051800046D15048E10050F8210000F00040E0B363
:105190000020494941F824004A48E10050F8210024
:1051A00040F080414748E20040F8221030E038E00B
:1051B000454850F8240040F4002142481030E200F5
:1051C00040F82210FFF7A7FA00F0010050B13D4867
:1051D000E10050F8210040F080513A48E20040F8E8
:1051E000221009E03748E10050F8210040F000515A
:1051F0003448E20040F822103248E10050F8210023
:1052000040F004412F48E20000E001E040F82210A5
:1052100000BF641C012C91D94FF402104FF0A04143
:10522000486106F48010E8B34FF480104FF0A041BD
:105230004861012438E01F48E10050F82100C0F324
:105240008140012800D02CE01A48E10050F82100EC
:10525000C0F3C03000B924E01648E10050F8210046
:1052600000F00040E0B1FFF756FA00F001011148EC
:10527000E20050F82200C0F30040814210D101202A
:10528000A040124909680843104908600948E10034
:1052900050F8210040F090410648E20040F822100A
:1052A00000BF00E002E0641C022CC4D3BDE8F08122
:1052B00088000020000900507406002074000020BF
:1052C0007CD60008000B00506400002090000020F5
:1052D0001CB56846FBF7D2FB01211020FCF750F803
:1052E00001208DF804008DF8060000208DF80700DD
:1052F00003208DF805000720009069469248FBF7CF
:1053000075FB04219048FBF7EDFB02218E48FBF76B
:10531000E9FB01218C48FBF7E5FB96208B490880CF
:10532000012088701CBD89488078894909788842A5
:105330000DD08548406940F007008349486100204E
:105340008449087081488078814908700FE07F485F
:10535000C07881490978884209D07B48406940F08B
:105360000700794948617948C0787B4908707948D5
:10537000007830B101281ED0032823D0042870D132
:105380009EE07248807860B1012802D002280CD1DA
:1053900003E001206F4908700BE003206D4908709D
:1053A00007E004206B49087003E003206949087096
:1053B00000BF00BFC5E06448406940F00700624993
:1053C0004861BEE06548006865490968401A5F4960
:1053D000B1F90010884200D2704760480068604907
:1053E00008605A48C078082864D2DFE800F0041347
:1053F0001C252C0C333B5B48006880F001005A49A7
:10540000C1F888025AE05048406980F006004E49D1
:10541000486153E05348001F006880F00100524982
:10542000C1F884024AE04F480838006880F0010063
:105430004D49C1F8800241E04348406980F00300D3
:10544000414948613AE04048406980F005003E49E2
:10545000486133E03C48406980F007003A494861C0
:105460002CE06AE04FF08040406A404909780844E7
:105470003E49087008460078401C087039480838D2
:105480000068097848403849C1F880023548001F53
:1054900000683649097880EA61003349C1F884021E
:1054A000304800683149097880EAA1002E49C1F8E6
:1054B000880203E000202549C87000BF00BF40E01B
:1054C0002248C07807282FD2DFE800F0040F141913
:1054D0002008270000202349086029E01A48406975
:1054E00020F006001849486122E000201D49091FEC
:1054F00008601DE000201B490839086018E01248C8
:10550000406920F003001049486111E00E484069ED
:1055100020F005000C4948610AE00B48406920F082
:1055200007000949486103E000200849C87000BF2E
:1055300000BF01200749087003E0002005490870FA
:1055400000BF00BF00BF47E70010024094000020EA
:1055500099000020980000209A0000202C000020D4
:105560009C0000208802424200004242A00000202D
:1055700010B57522D0218648FEF71AFA0446682C29
:105580002BD100236B22D0218148FEF7AFFA4223B2
:105590003722D0217E48FEF7A9FA40236A22D02183
:1055A0007B48FEF7A3FA04231922D0217848FEF79E
:1055B0009DFA02231A22D0217548FEF797FA182384
:1055C0001B22D0217248FEF791FA10231C22D02111
:1055D0006F48FEF78BFA002010BD0120FCE710B5E4
:1055E00086B0044602A80E233B22D02100906848D2
:1055F000FEF7F4FA9DF809009DF8081040EA012032
:1056000000B220809DF80B009DF80A1040EA0120AE
:1056100000B260809DF80D009DF80C1040EA01205A
:1056200000B2A0809DF80F009DF80E1040EA012006
:1056300000B2A0819DF811009DF8101040EA0120F1
:1056400000B2E0809DF813009DF8121040EA01209E
:1056500000B220819DF815009DF8141040EA012049
:1056600000B2608106B010BD70B500240025002690
:105670003B22D0214648FEF79BF905463C22D0212B
:105680004348FEF795F9064646EA052004B220464F
:1056900070BD70B50024002500263D22D0213C4875
:1056A000FEF786F905463E22D0213948FEF780F9FB
:1056B000064646EA052004B2204670BD70B50024B7
:1056C000002500263F22D0213148FEF771F905461A
:1056D0004022D0212E48FEF76BF9064646EA052007
:1056E00004B2204670BD70B5002400250026432278
:1056F000D0212748FEF75CF905464422D0212448F2
:10570000FEF756F9064646EA052004B2204670BD6B
:1057100070B50024002500264522D0211C48FEF744
:1057200047F905464622D0211948FEF741F90646B9
:1057300046EA052004B2204670BD70B5002400255D
:1057400000264722D0211248FEF732F905464822AA
:10575000D0210F48FEF72CF9064646EA052004B290
:10576000204670BD70B50024002500264122D021BE
:105770000748FEF71DF905464222D0210448FEF7EE
:1057800017F9064646EA052004B2204670BD00001F
:105790000054004008B500200090552000900120E2
:1057A0002149087001216846FEF78BF808BD1E49A3
:1057B0000978012905D11D49087002211A4A117082
:1057C0001BE019490978022917D11849097800EB1B
:1057D000012100EE101AB8EEC00AF2EE040A80EEC3
:1057E000201ABCEEC10A10EE101A114A11800021D5
:1057F0000D4A117001210F4A11700D4909880E4A96
:105800001288891A09B20D4A1180094909880A4A81
:1058100011800749098800EE101AB8EE400A0849BD
:1058200081ED050A70470000A2000020AA000020B8
:10583000A4000020A3000020A6000020A800002053
:10584000CC03002070B504460D46164633462A4662
:1058500021463148FEF74AF970BD70B504460D4641
:105860002A4621462C48FEF7A3F80646304670BD6E
:1058700010B500211820FFF7F0FF0446482C09D18D
:1058800011220A211820FFF7DDFF6420FCF7A5FF95
:10589000002010BD0120FCE71CB5044603211820A0
:1058A000FFF7DBFF8DF8000004211820FFF7D5FF7C
:1058B0008DF8010005211820FFF7CFFF8DF80200B9
:1058C00006211820FFF7C9FF8DF8030007211820D3
:1058D000FFF7C3FF8DF8040008211820FFF7BDFF74
:1058E0008DF805009DF800009DF8011040EA0120A8
:1058F00000B220809DF802009DF8031040EA0120CC
:1059000000B260809DF804009DF8051040EA012077
:1059100000B2A0801CBD00000054004070B50446D9
:105920000D46164633462A462146FC48FEF7DEF869
:1059300070BD10B50446201DC2B20821EE20FFF74D
:10594000EDFF10BD70B504460D462A462146F348CA
:10595000FEF72EF80646304670BD2DE9F0410646AA
:105960000F4615460024A046102F19D008DC012F41
:1059700023D0022F0BD0042F0CD0082F1CD10CE009
:10598000202F10D0402F11D0802F15D111E044F0DE
:10599000100413E044F0200410E044F030040DE063
:1059A00044F040040AE044F0500407E044F060048E
:1059B00004E044F0700401E000BF00BF00BF102D00
:1059C0001FD008DC012D31D0022D0BD0042D0ED0BC
:1059D000082D2AD110E0202D18D0402D1BD0802D6D
:1059E00023D11DE044F001044FF4C01821E044F03D
:1059F00002044FF460181CE044F003044FF4F00874
:105A000017E044F004044FF4783812E044F0050441
:105A10004FF4FC280DE044F006044FF47E2808E023
:105A200044F007044FF4FF1803E000BF4FF40028D0
:105A300000BF00BFA6B9BA48C0F82480224606219C
:105A4000EE20FFF76BFF082D0ADD0921EE20FFF79E
:105A500079FF044644F004020921EE20FFF75EFFBF
:105A6000012E15D1AE48C0F8288044F080020721ED
:105A7000EE20FFF753FF082D0ADD0921EE20FFF786
:105A800061FF044644F008020921EE20FFF746FFBB
:105A9000BDE8F08170B51021EE20FFF753FF0446FA
:105AA0001121EE20FFF74EFF0546200140EA1510B8
:105AB0009B4908800846008800F4006028B1084629
:105AC000B0F9000040F4704002E09548B0F90000E1
:105AD00000B2934908801121EE20FFF733FF0446FE
