:10046600021200000A083F065B4F666D7D077F6F2C
:06044000C2A77F017E004F
:10044600D3EF9400EE6480948040147D657C00EDCB
:0F0456001D70011CED4C70F7EF1F70E41E80E16C
:010465002274
:0B0003000000000000000000000022D0
:10030800AE1AAF1B7C007D641201E38E1E8F1FAEF8
:100318001AAF1B7C007D641201E37E007F0ACFCDFB
:10032800CFCECCCE1201E3AB07AA06AE1AAF1B7C28
:10033800007D0A1201E38D82D2A67408251FF8E613
:10034800F580C2A67580FFD2A77580FE120440D240
:10035800A6AF0374082FF8E6F580C2A67580FFD211
:10036800A77580FD120440D2A6AF8274082FF8E664
:0E037800F580C2A67580FFD2A77580FBC2A7D4
:010386002254
:10040100C2B2C2B3758910E48025D2B2120003C210
:10041100B230B3FDD2AFD2AAD2ABD28E7F147E005E
:10042100120446E51364014512700AF512F513F53D
:0F0431008DF58B80D5E4F51AF51B12030880CBEF
:030013000203875E
:10038700C0E0C0F0C083C082C0D075D000C000C03C
:1003970001C002C003C004C005C006C007C28EC2A8
:1003A700AFAF8D7518008F19AF8B7516008F17E5D6
:1003B700197F00FEEF2517F515E5163EF514FCAD80
:1003C700151201297B967A43798B783C12001E120D
:1003D70001628E1A8F1B120308751200751301D064
:1003E70007D006D005D004D003D002D001D000D06A
:0A03F700D0D082D083D0F0D0E032E5
:03001B0002047765
:07047700758D00758B00324A
:10001E00EC4D6011E8497017ED33EC3304600DE4DC
:10002E00FCFFFEFD22E933E8330470F80201CE1224
:10003E00019958046009E4CC248150062850090225
:10004E0001D82840030201D5C0E0EB4A7044B980C4
:10005E0006D0E0FB0201C4EF4E701CBD8008EBFF22
:10006E00EAFEE9FD80EBE98DF0A4FEE5F002010762
:10007E00E9CDF9EAFEEBFFEF89F0A4FCE5F0CE89BD
:10008E00F0A42EFFE435F0CD89F0A42DFEE435F07A
:10009E008067EF4E7005BD80D780C3EF8BF0A4ACA8
:1000AE00F0EE8BF0A42CFCE435F0F8EF8AF0A42CE3
:1000BE00E5F038FCE433CB8DF0A42CFCE5F03BF8F6
:1000CE00EE8AF0A42CFCE5F038F8E433CF89F0A4E6
:1000DE002CFCE5F038CF3400CE89F0A42FFFE5F0EC
:1000EE003EFEE433C98DF0A42EFEE5F039CD8AF044
:1000FE00A42FFFE5F03EFEE43DFD33D0E0FB5007BC
:10010E000BBB000F0201D8EC2CFCEF33FFEE33FEDD
:06011E00ED33FD0201B00B
:1001240075F020800E75F010800575F0087D007E56
:10013400007F003392D530D503120219EC334010FE
:10014400EF33FFEE33FEED33FDEC33FCD5F0ED225F
:0E015400E5F0247EA2D513CC92E7CDCEFF229B
:10016200EDD2E7CD33EC3392D524814006E4FFFE95
:10017200FDFC22FCE4CFCECDCC24E0501174FF80F4
:10018200EDC3CC13CCCD13CDCE13CECF13CF047091
:07019200F030D5DE02021976
:10019900E9D2E7C933E833F892D5EDD2E7CD33ECAC
:0701A90033FC5002B2D52225
:1001B000EC30E7100FBF000C0EBE00080DBD0004B0
:1001C0000BEB6014A2D5EB13FCED92E7FD2274FF5C
:1001D000FCFDFEFF22E480F8A2D574FF13FC7D80B5
:0301E000E480EFC9
:0300000002027C7D
:0C027C00787FE4F6D8FD75811F0202C3F4
:1001E300C2D5EC30E709B2D5E4C39DFDE49CFCEE37
:1001F30030E715B2D5E4C39FFFE49EFE120227C386
:10020300E49DFDE49CFC800312022730D507C3E480
:060213009FFFE49EFE22A5
:0E021900C3E49FFFE49EFEE49DFDE49CFC22F6
:10028800020401E493A3F8E493A34003F68001F287
:1002980008DFF48029E493A3F85407240CC8C33377
:1002A800C4540F4420C8834004F456800146F6DF46
:1002B800E4800B0102040810204080900466E47E6C
:1002C800019360BCA3FF543F30E509541FFEE4933B
:1002D800A360010ECF54C025E060A840B8E493A302
:1002E800FAE493A3F8E493A3C8C582C8CAC583CA2D
:1002F800F0A3C8C582C8CAC583CADFE9DEE780BEE5
:010476000085
:10022700BC000BBE0029EF8DF084FFADF022E4CCBB
:10023700F875F008EF2FFFEE33FEEC33FCEE9DEC84
:10024700984005FCEE9DFE0FD5F0E9E4CEFD22EDCA
:10025700F8F5F0EE8420D21CFEADF075F008EF2F14
:10026700FFED33FD4007985006D5F0F222C398FD05
:050277000FD5F0EA22A2
:00000001FF
